:040000008A11112828
:10000800FE00030EF9000408FA000A08FB00831238
:1000180003137F08FC008A11892B8A111328831384
:100028006A30FD000730FE003530FF006130840083
:100038008A11EB268A115030840061308A113E27DC
:1000480083018A11C92C003083120313CB000030BE
:10005800CA000030C900FA30C800C401C501023026
:100068006002031828295129022904306002031864
:1000780002290230600203186628E90102300F29BC
:1000880031305206031D5328DF01DF0A0A30A10070
:100098000030A20037308A1120268A1151293030C9
:1000A800831203135206031D6328DF010B30A100DE
:1000B8000030A2001F308A1120268A11512983128C
:1000C80003130D295108443A031944286528512976
:1000D8000030CB000030CA000030C9000030C80032
:1000E8006008FF3EC200FF3003180030C300C6019D
:1000F800C7014708803AC0004308803A4002031D00
:1001080087284208460203185129831203136908F5
:10011800031951294608013E503E84008313000804
:100128008A11F7268A11031CF02883120313460844
:10013800013E503E8400831300088A112A278A1141
:10014800831203132008AF002108B0000030B01B51
:10015800FF30B100B2004608013EC000470803184E
:10016800013E003EC100C009C109C00A0319C10A05
:1001780042084007A80043080318430A4107A9009A
:100188000A30A6000030A7008A1190258A11831230
:1001980003132608B3002708B4000030B41BFF304F
:1001A800B500B6008A11DF258A11831203132F08C0
:1001B800C807300803110318013E031DC907310899
:1001C80003110318013E031DCA073208031103185F
:1001D800013E031DCB07F72883120313E9010530FD
:1001E800C0004008E8000130C6070318C70A0030FD
:1001F800C7077D2803306002031C0529E901033085
:100208000F2951088A11F7268A1103181329831216
:100218000313E9010530C0004008E80051298312A2
:10022800031351088A112A278A11831203132108FC
:10023800C5002008C4000030CB000030CA000030E0
:10024800C9003230C80051295008433A03193928E7
:10025800073A03196C28083A03196C28013A03195C
:100268006C281D3A03196C28023A03193828013AF8
:1002780003193828063A03196C28023A0319382852
:10028800333A0319FE28093A0319FE281D3A0319BF
:10029800FE28053A0319FE28512983120313690819
:1002A800031D422A6D2A0E30A1000030A200013041
:1002B8008A1120268A116D2A72308A11D6268A114F
:1002C8006D2A77308A11D6268A116D2A8312031374
:1002D8004B08A8004A08A7004908A6004808A50036
:1002E8008A11C2268A118A11F8238A116D2A83126B
:1002F80003134508B3004408B2004B08B7004A0886
:10030800B6004908B5004808B4008A1173228A115A
:100318008312031307108A111F278A1183120313EC
:10032800071475308A11D6268A116D2A07104908D4
:10033800A1004808A0008A116C268A1183120313B1
:10034800071455308A11D6268A116D2A8312031391
:100358004508B3004408B2004B08B7004A08B60085
:100368004908B5004808B4008A1173228A1183121B
:10037800031387108A111F278A1183120313871406
:1003880064308A11D6268A116D2A87104908A1007F
:100398004808A0008A116C268A1183120313871457
:1003A80044308A11D6268A116D2A83120313450810
:1003B800B3004408B2004B08B7004A08B600490821
:1003C800B5004808B4008A1173228A1183120313F6
:1003D80007118A111F278A118312031307156D301D
:1003E8008A11D6268A116D2A07114908A1004808E2
:1003F800A0008A116C268A118312031307154D3049
:100408008A11D6268A116D2A831203134508B30070
:100418004408B2004B08B7004A08B6004908B500BE
:100428004808B4008A1173228A11831203138512B3
:100438008A111F278A1183120313851670308A11B7
:10044800D6268A116D2A85124908A1004808A000FD
:100458008A116C268A1183120313851650308A116B
:10046800D6268A116D2A013083120313A2000030A8
:10047800A30065308A118E268A116D2A8312031310
:100488005008433A03196D2A073A0319C929083A4B
:1004980003196A29013A0319F8291D3A0319272A69
:1004A800023A03196029013A03195729063A031930
:1004B8009A29023A03196529333A0319AA29093AEC
:1004C8000319D9291D3A0319082A053A03197B2962
:1004D800372A83120313E001E901E90A08008312AD
:1004E8000313BE01BF018A11F8238A118312031373
:1004F8005F03031D9B2A0D30A1000030A2001130BC
:100508008A1120268A11831203135E08A3005D084E
:10051800A20063308A118E268A11831203135C08A5
:10052800A3005B08A2006C308A118E268A11831200
:1005380003135B085C04031DDD2A5F03031DAC2A5B
:100548000930A1000030A20042308A1120268A1109
:10055800831203133708A8003608A7003508A60039
:100568003408A5008A11C2268A118A11F8238A1133
:10057800831203135F03031DDD2A0B30A100003033
:10058800A2002B308A1120268A11831203135E08D9
:10059800A3005D08A20063308A118E268A11831297
:1005A80003135C08A3005B08A2006C308A118E2636
:1005B8008A11831203135C083306031DE52A5B08BE
:1005C8003206031908005C083302031DED2A5B0894
:1005D80032020318062B5B09B8005C09B900B80A97
:1005E8000319B90A32083807BA0033080318330A5E
:1005F8003907BB003A08053EBE003B080318013E18
:10060800003E1C2B33085C02031D0C2B32085B02D6
:1006180003181D2B5B09B8005C09B900B80A031957
:10062800B90A32083807BE0033080318330A3907F5
:10063800BF005D085E04031D272B0130BE070318A9
:10064800BF0A0030BF075F03031D3C2B0830A10021
:100658000030A2004C308A1120268A11831203131D
:100668003F08A3003E08A2003D308A118E268A1159
:1006780083120313BC01BD013F083D02031D462B35
:100688003E083C020318652B3708A8003608A70067
:100698003508A6003408A5008A11C2268A118312DB
:1006A80003133508A1003408A0008A116C268A11AA
:1006B800013083120313BC070318BD0A0030BD07BD
:1006C800402B8A11F8238A11831203135F03031D39
:1006D80008005E08A3005D08A20063308A118E2618
:1006E8008A11831203135C08A3005B08A2006C3014
:1006F8008A118E268A110E3083120313A10000304E
:10070800A20010308A1120260800831603138C1EBD
:10071800B12B831203138C1EB12B8A1156278A1111
:10072800F8007808FD007D0803199E2B7D088A11C2
:1007380061248A1183120313171DA82B0130D900D5
:100748000030DA0097139717971CEB2B0130D7006E
:100758000030D80017121716EB2B0B198B1EEB2B3A
:10076800FA30831281020B116208803AFF00803050
:100778007F02031DC12B01306102031CCC2BFF300B
:1007880083120313E1070318E20AFF30E207EB2B99
:10079800831203136408E2006308E1001030850641
:1007A800051EEB2B6608803AFF0080307F02031D90
:1007B800DF2B01306502031CEA2BFF308312031381
:1007C800E5070318E60AFF30E607EB2B8B127C08D7
:1007D80083120313FF007B088A007A088400790ECD
:1007E8008300FE0E7E0E0900031083120313851D7D
:1007F8000314003003180130A600A7010310A60D4A
:10080800A70D0310A60DA70D0310051D0314003036
:1008180003180130A800A9012808A0002908A10090
:100828000330A2000030A3008A1149268A11031060
:1008380083120313851C0314003003180130AA0027
:10084800AB010310AA0DAB0D0310051C03140030F7
:10085800031801302A07AC002B0803182B0AAD0037
:1008680020082C07AE0021080318210A2D07AF0025
:1008780026082E07B00027080318270A2F07B100FB
:100888003008DD003108DE000A305D065E04031D15
:10089800512C0530DD000030DE005D085E040319D0
:1008A800080000305E02063003195D0203180800D4
:1008B8005E08DC005D08DB000800F7009F2C0230B2
:1008C800F500750883120313E900E001A72C033033
:1008D800831203136906031D732C0430912CE9015C
:1008E80002309B2C02308312031369060319802CF3
:1008F80003306906031DA72C073060020318952CE6
:100908007708F5006008503E84007508831380005E
:100918000130F5007508E0070330F5007508E900B7
:10092800A72C07306002031CA72CE9010330F5004F
:100938007508E800A72C7708023A0319632C013AD6
:1009480003196B2C762C831203136908031D080006
:1009580060080319BA2C6808F500F6017508F2005A
:100968007608F30065308A11AB268A1183120313C7
:10097800E901E90A0530F0000030F1000230F20028
:100988000030F3008A11132708008B018316031324
:100998009101CF308500E0308700831203139F0157
:1009A80007309900871587140714071585168316CD
:1009B800031381128B1201138111073081040B126A
:1009C8008B118C108C160B178B1783120313871639
:1009D80007161930930090309700243096000530A0
:1009E800A1000030A20055308A1120268A110A3051
:1009F80083120313A0000030A1000230A2000030CF
:100A0800A3008A1107278A1164008B1A262D8312E6
:100A18000313111F262D6903031D262D8A111F2775
:100A28008A11831203139114630002308312031393
:100A3800A0000030A1000430A2000030A3008A11F9
:100A480007278A110430831203136906031D082D32
:100A58008A1127208A11082D05308A000408840A83
:100A680082070034733453346934743475346F3402
:100A780035342D347634303431342E343034313406
:100A880000342F344D3475346C3474346934433441
:100A9800683461346E346E3465346C343A340034FE
:100AA80063342D34443465346234753467344F34D8
:100AB800463446342D3400342F3466346934723465
:100AC80073347434633461346C346C343A340034C1
:100AD80063342D34443465346234753467344F34A8
:100AE8004E342D34003466346934723473347434BB
:100AF800633461346C346C3400344E3462344334BF
:100B0800683461346E346734653400345334743473
:100B18006134723474340034013083120313AB002F
:100B28000030AC002908803AFF0080307F02031DA6
:100B38009F2D01302802031CD82D01308312031386
:100B4800AD000030AE002908803AAA002E08803A8D
:100B58002A02031DB12D2D082802031CD82D83124B
:100B680003132708A1002608A0002C08A3002B08BF
:100B7800A2008A1149268A11831203132108AC00A6
:100B88002008AB000130AD070318AE0A0030AE07ED
:100B98002908803AAA002E08803A2A02031DD62D79
:100BA8002D0828020318B32D831203132C08A7005D
:100BB8002B08A6000800003083120313BB00003086
:100BC800BA000030B9000030B8002F1CFF2D3308E0
:100BD800B807340803110318013E031DB907350887
:100BE80003110318013E031DBA0736080311031841
:100BF800013E031DBB070130B7000310B30DB40D50
:100C0800B50DB60DB70B012E01300310B20CB10CA7
:100C1800B00CAF0CFF3E031D092E3208310430041E
:100C28002F04031DE92D3B08B2003A08B10039082A
:100C3800B0003808AF00080083120313A500023083
:100C48008A1146278A1183120313A301A4012208DB
:100C58002402031D312E210823020318452E2308E0
:100C6800250784008A1130258A118A1146278A119E
:100C7800013083120313A3070318A40A0030A40742
:100C88002B2E03308A114627080083120313A40170
:100C9800A501201C552E2208A4070318A50A23081D
:100CA800A50701300310A20DA30DFF3E031D562E0C
:100CB80001300310A10CA00CFF3E031D5D2E20087F
:100CC8002104031D4D2E2508A1002408A0000800BA
:100CD80083120313A301A4012408803AA200210867
:100CE800803A2202031D7A2E2008230203180800E6
:100CF800C73083120313A200812EA20B802E842EEC
:100D08000000013083120313A3070318A40A00305C
:100D1800A407702E83120313A40002308A114627F9
:100D28008A118312031324088A1146278A11831211
:100D380003132308A1002208A0008A115C278A1146
:100D48008A1146278A1103308A1146270800F400C1
:100D580002308A114E278A1174088A114E278A1187
:100D68007308F1007208F0008A1161278A118A114C
:100D78004E278A1103308A114E2708008312031365
:100D880087112608A1002508A0008A116C268A115F
:100D98008312031387152608A1002508A0008A11CD
:100DA8006C26080083120313A10002308A1146271B
:100DB8008A118312031321088A1146278A110330E6
:100DC8008A11462708007E088A007F088200E726E5
:100DD8008A118000840A04087D0603190034FF0A7A
:100DE8000319FE0AEB2E83120313A100A0013A3067
:100DF80021020318052F30302102031C052FA00102
:100E0800A00A200C0800831203132108E60020081A
:100E1800E5002308E4002208E3008B1608007108A7
:100E280083120313E6007008E5007308E4007208F3
:100E3800E3008B160800413083120313A100EE3043
:100E4800A000A00B252FA10B252F08008312031348
:100E5800A3002308D03EA000FF3003180030A100F3
:100E680008000434003404340034033400340334F8
:100E78000134013464008001840A04060319003433
:100E880004063F2F83120313A0008C1C492F20084F
:100E980095000800F000831203138C1C4F2F700874
:100EA80095000800831203138C1E562F140808009F
:100EB800831203132008303E08007008303E0800F3
:02400E00D4F0EC
:00000001FF
